{
  "_format": "hh-sol-artifact-1",
  "contractName": "LegasiV0",
  "sourceName": "contracts/LegasiV0.sol",
  "abi": [
    {
      "inputs": [],
      "stateMutability": "nonpayable",
      "type": "constructor"
    },
    {
      "inputs": [
        {
          "internalType": "address",
          "name": "notary",
          "type": "address"
        }
      ],
      "name": "addNotary",
      "outputs": [],
      "stateMutability": "nonpayable",
      "type": "function"
    },
    {
      "inputs": [
        {
          "internalType": "address",
          "name": "from",
          "type": "address"
        }
      ],
      "name": "balanceOf",
      "outputs": [
        {
          "components": [
            {
              "internalType": "address",
              "name": "erc20",
              "type": "address"
            },
            {
              "internalType": "uint256",
              "name": "value",
              "type": "uint256"
            }
          ],
          "internalType": "struct LegasiV0.Balance[]",
          "name": "",
          "type": "tuple[]"
        }
      ],
      "stateMutability": "view",
      "type": "function"
    },
    {
      "inputs": [
        {
          "internalType": "address",
          "name": "notary",
          "type": "address"
        }
      ],
      "name": "isNotary",
      "outputs": [
        {
          "internalType": "bool",
          "name": "result",
          "type": "bool"
        }
      ],
      "stateMutability": "view",
      "type": "function"
    },
    {
      "inputs": [
        {
          "internalType": "address",
          "name": "from",
          "type": "address"
        },
        {
          "components": [
            {
              "internalType": "address",
              "name": "heir",
              "type": "address"
            },
            {
              "internalType": "uint256",
              "name": "amount",
              "type": "uint256"
            }
          ],
          "internalType": "struct LegasiV0.Transfer[]",
          "name": "to",
          "type": "tuple[]"
        }
      ],
      "name": "transferFunds",
      "outputs": [],
      "stateMutability": "nonpayable",
      "type": "function"
    },
    {
      "inputs": [
        {
          "internalType": "address",
          "name": "token",
          "type": "address"
        },
        {
          "internalType": "address",
          "name": "notary",
          "type": "address"
        }
      ],
      "name": "transferToNotary",
      "outputs": [],
      "stateMutability": "nonpayable",
      "type": "function"
    }
  ],
  "bytecode": "0x608060405234801561001057600080fd5b5033600260006101000a81548173ffffffffffffffffffffffffffffffffffffffff021916908373ffffffffffffffffffffffffffffffffffffffff160217905550610dab806100616000396000f3fe608060405234801561001057600080fd5b50600436106100575760003560e01c80630588565f1461005c5780635f2f008a1461007857806370a0823114610094578063871f7db1146100c4578063f13eed97146100e0575b600080fd5b61007660048036038101906100719190610905565b610110565b005b610092600480360381019061008d9190610932565b6101c4565b005b6100ae60048036038101906100a99190610905565b6102f6565b6040516100bb9190610a78565b60405180910390f35b6100de60048036038101906100d99190610aff565b610579565b005b6100fa60048036038101906100f59190610905565b6107bd565b6040516101079190610b7a565b60405180910390f35b3373ffffffffffffffffffffffffffffffffffffffff16600260009054906101000a900473ffffffffffffffffffffffffffffffffffffffff1673ffffffffffffffffffffffffffffffffffffffff161461016a57600080fd5b60018060008373ffffffffffffffffffffffffffffffffffffffff1673ffffffffffffffffffffffffffffffffffffffff16815260200190815260200160002060006101000a81548160ff02191690831515021790555050565b60008060003373ffffffffffffffffffffffffffffffffffffffff1673ffffffffffffffffffffffffffffffffffffffff168152602001908152602001600020905080839080600181540180825580915050600190039060005260206000200160009091909190916101000a81548173ffffffffffffffffffffffffffffffffffffffff021916908373ffffffffffffffffffffffffffffffffffffffff1602179055508273ffffffffffffffffffffffffffffffffffffffff1663095ea7b38369021e19e0c9bab24000006040518363ffffffff1660e01b81526004016102ad929190610be9565b6020604051808303816000875af11580156102cc573d6000803e3d6000fd5b505050506040513d601f19601f820116820180604052508101906102f09190610c3e565b50505050565b6060600160003373ffffffffffffffffffffffffffffffffffffffff1673ffffffffffffffffffffffffffffffffffffffff16815260200190815260200160002060009054906101000a900460ff1661034e57600080fd5b60008060008473ffffffffffffffffffffffffffffffffffffffff1673ffffffffffffffffffffffffffffffffffffffff16815260200190815260200160002080548060200260200160405190810160405280929190818152602001828054801561040e57602002820191906000526020600020905b8160009054906101000a900473ffffffffffffffffffffffffffffffffffffffff1673ffffffffffffffffffffffffffffffffffffffff16815260200190600101908083116103c4575b5050505050905060008151905060008167ffffffffffffffff81111561043757610436610c6b565b5b60405190808252806020026020018201604052801561047057816020015b61045d61086d565b8152602001906001900390816104555790505b50905060005b8281101561056d57600084828151811061049357610492610c9a565b5b6020026020010151905060405180604001604052808273ffffffffffffffffffffffffffffffffffffffff1681526020018273ffffffffffffffffffffffffffffffffffffffff166370a082318a6040518263ffffffff1660e01b81526004016104fd9190610cc9565b602060405180830381865afa15801561051a573d6000803e3d6000fd5b505050506040513d601f19601f8201168201806040525081019061053e9190610d10565b81525083838151811061055457610553610c9a565b5b6020026020010181905250508080600101915050610476565b50809350505050919050565b600160003373ffffffffffffffffffffffffffffffffffffffff1673ffffffffffffffffffffffffffffffffffffffff16815260200190815260200160002060009054906101000a900460ff166105cf57600080fd5b60008060008573ffffffffffffffffffffffffffffffffffffffff1673ffffffffffffffffffffffffffffffffffffffff16815260200190815260200160002080548060200260200160405190810160405280929190818152602001828054801561068f57602002820191906000526020600020905b8160009054906101000a900473ffffffffffffffffffffffffffffffffffffffff1673ffffffffffffffffffffffffffffffffffffffff1681526020019060010190808311610645575b50505050509050600081519050600084849050905060005b828110156107b45760005b828110156107a6578482815181106106cd576106cc610c9a565b5b602002602001015173ffffffffffffffffffffffffffffffffffffffff1663a9059cbb88888581811061070357610702610c9a565b5b905060400201600001602081019061071b9190610905565b89898681811061072e5761072d610c9a565b5b905060400201602001356040518363ffffffff1660e01b8152600401610755929190610d4c565b6020604051808303816000875af1158015610774573d6000803e3d6000fd5b505050506040513d601f19601f820116820180604052508101906107989190610c3e565b5080806001019150506106b2565b5080806001019150506106a7565b50505050505050565b60003373ffffffffffffffffffffffffffffffffffffffff16600260009054906101000a900473ffffffffffffffffffffffffffffffffffffffff1673ffffffffffffffffffffffffffffffffffffffff161461081957600080fd5b600160008373ffffffffffffffffffffffffffffffffffffffff1673ffffffffffffffffffffffffffffffffffffffff16815260200190815260200160002060009054906101000a900460ff169050919050565b6040518060400160405280600073ffffffffffffffffffffffffffffffffffffffff168152602001600081525090565b600080fd5b600080fd5b600073ffffffffffffffffffffffffffffffffffffffff82169050919050565b60006108d2826108a7565b9050919050565b6108e2816108c7565b81146108ed57600080fd5b50565b6000813590506108ff816108d9565b92915050565b60006020828403121561091b5761091a61089d565b5b6000610929848285016108f0565b91505092915050565b600080604083850312156109495761094861089d565b5b6000610957858286016108f0565b9250506020610968858286016108f0565b9150509250929050565b600081519050919050565b600082825260208201905092915050565b6000819050602082019050919050565b6109a7816108c7565b82525050565b6000819050919050565b6109c0816109ad565b82525050565b6040820160008201516109dc600085018261099e565b5060208201516109ef60208501826109b7565b50505050565b6000610a0183836109c6565b60408301905092915050565b6000602082019050919050565b6000610a2582610972565b610a2f818561097d565b9350610a3a8361098e565b8060005b83811015610a6b578151610a5288826109f5565b9750610a5d83610a0d565b925050600181019050610a3e565b5085935050505092915050565b60006020820190508181036000830152610a928184610a1a565b905092915050565b600080fd5b600080fd5b600080fd5b60008083601f840112610abf57610abe610a9a565b5b8235905067ffffffffffffffff811115610adc57610adb610a9f565b5b602083019150836040820283011115610af857610af7610aa4565b5b9250929050565b600080600060408486031215610b1857610b1761089d565b5b6000610b26868287016108f0565b935050602084013567ffffffffffffffff811115610b4757610b466108a2565b5b610b5386828701610aa9565b92509250509250925092565b60008115159050919050565b610b7481610b5f565b82525050565b6000602082019050610b8f6000830184610b6b565b92915050565b610b9e816108c7565b82525050565b6000819050919050565b6000819050919050565b6000610bd3610bce610bc984610ba4565b610bae565b6109ad565b9050919050565b610be381610bb8565b82525050565b6000604082019050610bfe6000830185610b95565b610c0b6020830184610bda565b9392505050565b610c1b81610b5f565b8114610c2657600080fd5b50565b600081519050610c3881610c12565b92915050565b600060208284031215610c5457610c5361089d565b5b6000610c6284828501610c29565b91505092915050565b7f4e487b7100000000000000000000000000000000000000000000000000000000600052604160045260246000fd5b7f4e487b7100000000000000000000000000000000000000000000000000000000600052603260045260246000fd5b6000602082019050610cde6000830184610b95565b92915050565b610ced816109ad565b8114610cf857600080fd5b50565b600081519050610d0a81610ce4565b92915050565b600060208284031215610d2657610d2561089d565b5b6000610d3484828501610cfb565b91505092915050565b610d46816109ad565b82525050565b6000604082019050610d616000830185610b95565b610d6e6020830184610d3d565b939250505056fea26469706673582212209ac108dec569fd12879b3972167cbea05d4d7ddb948cc83684bc9f0cab0a742d64736f6c63430008180033",
  "linkReferences": {},
  "deployedLinkReferences": {}
}