{
  "_format": "hh-sol-artifact-1",
  "contractName": "LegasiV0",
  "sourceName": "contracts/LegasiV0.sol",
  "abi": [
    {
      "inputs": [],
      "stateMutability": "nonpayable",
      "type": "constructor"
    },
    {
      "inputs": [
        {
          "internalType": "address",
          "name": "token",
          "type": "address"
        },
        {
          "internalType": "uint256",
          "name": "amount",
          "type": "uint256"
        }
      ],
      "name": "addBalance",
      "outputs": [],
      "stateMutability": "nonpayable",
      "type": "function"
    },
    {
      "inputs": [
        {
          "internalType": "address",
          "name": "deadMan",
          "type": "address"
        },
        {
          "components": [
            {
              "internalType": "address",
              "name": "heir",
              "type": "address"
            },
            {
              "internalType": "address",
              "name": "token",
              "type": "address"
            },
            {
              "internalType": "uint256",
              "name": "amount",
              "type": "uint256"
            }
          ],
          "internalType": "struct LegasiV0.Dispatch[]",
          "name": "dispatchArg",
          "type": "tuple[]"
        }
      ],
      "name": "addDispatch",
      "outputs": [],
      "stateMutability": "nonpayable",
      "type": "function"
    },
    {
      "inputs": [
        {
          "internalType": "address",
          "name": "notary",
          "type": "address"
        }
      ],
      "name": "addNotary",
      "outputs": [],
      "stateMutability": "nonpayable",
      "type": "function"
    },
    {
      "inputs": [
        {
          "internalType": "address",
          "name": "deadMan",
          "type": "address"
        }
      ],
      "name": "balanceOf",
      "outputs": [
        {
          "components": [
            {
              "internalType": "address",
              "name": "erc20",
              "type": "address"
            },
            {
              "internalType": "uint256",
              "name": "value",
              "type": "uint256"
            }
          ],
          "internalType": "struct LegasiV0.Balance[]",
          "name": "",
          "type": "tuple[]"
        }
      ],
      "stateMutability": "view",
      "type": "function"
    },
    {
      "inputs": [
        {
          "internalType": "address",
          "name": "deadMan",
          "type": "address"
        }
      ],
      "name": "getDispatch",
      "outputs": [
        {
          "components": [
            {
              "internalType": "address",
              "name": "heir",
              "type": "address"
            },
            {
              "internalType": "address",
              "name": "token",
              "type": "address"
            },
            {
              "internalType": "uint256",
              "name": "amount",
              "type": "uint256"
            }
          ],
          "internalType": "struct LegasiV0.Dispatch[]",
          "name": "",
          "type": "tuple[]"
        }
      ],
      "stateMutability": "view",
      "type": "function"
    },
    {
      "inputs": [
        {
          "internalType": "address",
          "name": "notary",
          "type": "address"
        }
      ],
      "name": "isNotary",
      "outputs": [
        {
          "internalType": "bool",
          "name": "result",
          "type": "bool"
        }
      ],
      "stateMutability": "view",
      "type": "function"
    },
    {
      "inputs": [
        {
          "internalType": "address",
          "name": "deadMan",
          "type": "address"
        }
      ],
      "name": "transferFunds",
      "outputs": [],
      "stateMutability": "nonpayable",
      "type": "function"
    }
  ],
  "bytecode": "0x608060405234801561001057600080fd5b50336000806101000a81548173ffffffffffffffffffffffffffffffffffffffff021916908373ffffffffffffffffffffffffffffffffffffffff1602179055506110fe806100606000396000f3fe608060405234801561001057600080fd5b506004361061007d5760003560e01c8063c26c230c1161005b578063c26c230c146100ea578063d944d83914610106578063e39ff19f14610136578063f13eed97146101525761007d565b80630588565f1461008257806321e5383a1461009e57806370a08231146100ba575b600080fd5b61009c60048036038101906100979190610a38565b610182565b005b6100b860048036038101906100b39190610a9b565b610235565b005b6100d460048036038101906100cf9190610a38565b610325565b6040516100e19190610bd7565b60405180910390f35b61010460048036038101906100ff9190610c5e565b610479565b005b610120600480360381019061011b9190610a38565b61058b565b60405161012d9190610daf565b60405180910390f35b610150600480360381019061014b9190610a38565b610735565b005b61016c60048036038101906101679190610a38565b610922565b6040516101799190610dec565b60405180910390f35b3373ffffffffffffffffffffffffffffffffffffffff1660008054906101000a900473ffffffffffffffffffffffffffffffffffffffff1673ffffffffffffffffffffffffffffffffffffffff16146101da57600080fd5b6001600260008373ffffffffffffffffffffffffffffffffffffffff1673ffffffffffffffffffffffffffffffffffffffff16815260200190815260200160002060006101000a81548160ff02191690831515021790555050565b6000600160003373ffffffffffffffffffffffffffffffffffffffff1673ffffffffffffffffffffffffffffffffffffffff16815260200190815260200160002090508060405180604001604052808573ffffffffffffffffffffffffffffffffffffffff16815260200184815250908060018154018082558091505060019003906000526020600020906002020160009091909190915060008201518160000160006101000a81548173ffffffffffffffffffffffffffffffffffffffff021916908373ffffffffffffffffffffffffffffffffffffffff160217905550602082015181600101555050505050565b6060600260003373ffffffffffffffffffffffffffffffffffffffff1673ffffffffffffffffffffffffffffffffffffffff16815260200190815260200160002060009054906101000a900460ff1661037d57600080fd5b600160008373ffffffffffffffffffffffffffffffffffffffff1673ffffffffffffffffffffffffffffffffffffffff168152602001908152602001600020805480602002602001604051908101604052809291908181526020016000905b8282101561046e57838290600052602060002090600202016040518060400160405290816000820160009054906101000a900473ffffffffffffffffffffffffffffffffffffffff1673ffffffffffffffffffffffffffffffffffffffff1673ffffffffffffffffffffffffffffffffffffffff168152602001600182015481525050815260200190600101906103dc565b505050509050919050565b600260003373ffffffffffffffffffffffffffffffffffffffff1673ffffffffffffffffffffffffffffffffffffffff16815260200190815260200160002060009054906101000a900460ff166104cf57600080fd5b6000600360008573ffffffffffffffffffffffffffffffffffffffff1673ffffffffffffffffffffffffffffffffffffffff1681526020019081526020016000209050600083839050905060005b81811015610583578285858381811061053957610538610e07565b5b90506060020190806001815401808255809150506001900390600052602060002090600302016000909190919091508181610574919061101a565b5050808060010191505061051d565b505050505050565b6060600260003373ffffffffffffffffffffffffffffffffffffffff1673ffffffffffffffffffffffffffffffffffffffff16815260200190815260200160002060009054906101000a900460ff166105e357600080fd5b600360008373ffffffffffffffffffffffffffffffffffffffff1673ffffffffffffffffffffffffffffffffffffffff168152602001908152602001600020805480602002602001604051908101604052809291908181526020016000905b8282101561072a57838290600052602060002090600302016040518060600160405290816000820160009054906101000a900473ffffffffffffffffffffffffffffffffffffffff1673ffffffffffffffffffffffffffffffffffffffff1673ffffffffffffffffffffffffffffffffffffffff1681526020016001820160009054906101000a900473ffffffffffffffffffffffffffffffffffffffff1673ffffffffffffffffffffffffffffffffffffffff1673ffffffffffffffffffffffffffffffffffffffff16815260200160028201548152505081526020019060010190610642565b505050509050919050565b3373ffffffffffffffffffffffffffffffffffffffff1660008054906101000a900473ffffffffffffffffffffffffffffffffffffffff1673ffffffffffffffffffffffffffffffffffffffff161461078d57600080fd5b6000600360008373ffffffffffffffffffffffffffffffffffffffff1673ffffffffffffffffffffffffffffffffffffffff168152602001908152602001600020905060008180549050905060005b8181101561091c578281815481106107f7576107f6610e07565b5b906000526020600020906003020160010160009054906101000a900473ffffffffffffffffffffffffffffffffffffffff1673ffffffffffffffffffffffffffffffffffffffff1663a9059cbb84838154811061085757610856610e07565b5b906000526020600020906003020160000160009054906101000a900473ffffffffffffffffffffffffffffffffffffffff1685848154811061089c5761089b610e07565b5b9060005260206000209060030201600201546040518363ffffffff1660e01b81526004016108cb929190611046565b6020604051808303816000875af11580156108ea573d6000803e3d6000fd5b505050506040513d601f19601f8201168201806040525081019061090e919061109b565b5080806001019150506107dc565b50505050565b60003373ffffffffffffffffffffffffffffffffffffffff1660008054906101000a900473ffffffffffffffffffffffffffffffffffffffff1673ffffffffffffffffffffffffffffffffffffffff161461097c57600080fd5b600260008373ffffffffffffffffffffffffffffffffffffffff1673ffffffffffffffffffffffffffffffffffffffff16815260200190815260200160002060009054906101000a900460ff169050919050565b600080fd5b600080fd5b600073ffffffffffffffffffffffffffffffffffffffff82169050919050565b6000610a05826109da565b9050919050565b610a15816109fa565b8114610a2057600080fd5b50565b600081359050610a3281610a0c565b92915050565b600060208284031215610a4e57610a4d6109d0565b5b6000610a5c84828501610a23565b91505092915050565b6000819050919050565b610a7881610a65565b8114610a8357600080fd5b50565b600081359050610a9581610a6f565b92915050565b60008060408385031215610ab257610ab16109d0565b5b6000610ac085828601610a23565b9250506020610ad185828601610a86565b9150509250929050565b600081519050919050565b600082825260208201905092915050565b6000819050602082019050919050565b610b10816109fa565b82525050565b610b1f81610a65565b82525050565b604082016000820151610b3b6000850182610b07565b506020820151610b4e6020850182610b16565b50505050565b6000610b608383610b25565b60408301905092915050565b6000602082019050919050565b6000610b8482610adb565b610b8e8185610ae6565b9350610b9983610af7565b8060005b83811015610bca578151610bb18882610b54565b9750610bbc83610b6c565b925050600181019050610b9d565b5085935050505092915050565b60006020820190508181036000830152610bf18184610b79565b905092915050565b600080fd5b600080fd5b600080fd5b60008083601f840112610c1e57610c1d610bf9565b5b8235905067ffffffffffffffff811115610c3b57610c3a610bfe565b5b602083019150836060820283011115610c5757610c56610c03565b5b9250929050565b600080600060408486031215610c7757610c766109d0565b5b6000610c8586828701610a23565b935050602084013567ffffffffffffffff811115610ca657610ca56109d5565b5b610cb286828701610c08565b92509250509250925092565b600081519050919050565b600082825260208201905092915050565b6000819050602082019050919050565b606082016000820151610d006000850182610b07565b506020820151610d136020850182610b07565b506040820151610d266040850182610b16565b50505050565b6000610d388383610cea565b60608301905092915050565b6000602082019050919050565b6000610d5c82610cbe565b610d668185610cc9565b9350610d7183610cda565b8060005b83811015610da2578151610d898882610d2c565b9750610d9483610d44565b925050600181019050610d75565b5085935050505092915050565b60006020820190508181036000830152610dc98184610d51565b905092915050565b60008115159050919050565b610de681610dd1565b82525050565b6000602082019050610e016000830184610ddd565b92915050565b7f4e487b7100000000000000000000000000000000000000000000000000000000600052603260045260246000fd5b60008135610e4381610a0c565b80915050919050565b60008160001b9050919050565b600073ffffffffffffffffffffffffffffffffffffffff610e7984610e4c565b9350801983169250808416831791505092915050565b6000819050919050565b6000610eb4610eaf610eaa846109da565b610e8f565b6109da565b9050919050565b6000610ec682610e99565b9050919050565b6000610ed882610ebb565b9050919050565b6000819050919050565b610ef282610ecd565b610f05610efe82610edf565b8354610e59565b8255505050565b60008135610f1981610a6f565b80915050919050565b60007fffffffffffffffffffffffffffffffffffffffffffffffffffffffffffffffff610f4e84610e4c565b9350801983169250808416831791505092915050565b6000610f7f610f7a610f7584610a65565b610e8f565b610a65565b9050919050565b6000819050919050565b610f9982610f64565b610fac610fa582610f86565b8354610f22565b8255505050565b600081016000830180610fc581610e36565b9050610fd18184610ee9565b505050600181016020830180610fe681610e36565b9050610ff28184610ee9565b50505060028101604083018061100781610f0c565b90506110138184610f90565b5050505050565b6110248282610fb3565b5050565b611031816109fa565b82525050565b61104081610a65565b82525050565b600060408201905061105b6000830185611028565b6110686020830184611037565b9392505050565b61107881610dd1565b811461108357600080fd5b50565b6000815190506110958161106f565b92915050565b6000602082840312156110b1576110b06109d0565b5b60006110bf84828501611086565b9150509291505056fea26469706673582212203c0ba2d8200ff123a6141822c41391c539449b8ed0b2688c78ddcffcc550f5f064736f6c63430008180033",
  "linkReferences": {},
  "deployedLinkReferences": {}
}