{
  "_format": "hh-sol-artifact-1",
  "contractName": "LegasiV0",
  "sourceName": "contracts/LegasiV0.sol",
  "abi": [
    {
      "inputs": [],
      "stateMutability": "nonpayable",
      "type": "constructor"
    },
    {
      "inputs": [
        {
          "internalType": "address",
          "name": "notary",
          "type": "address"
        }
      ],
      "name": "addNotary",
      "outputs": [],
      "stateMutability": "nonpayable",
      "type": "function"
    },
    {
      "inputs": [
        {
          "internalType": "address",
          "name": "token",
          "type": "address"
        },
        {
          "internalType": "uint256",
          "name": "amount",
          "type": "uint256"
        }
      ],
      "name": "addToken",
      "outputs": [],
      "stateMutability": "nonpayable",
      "type": "function"
    },
    {
      "inputs": [
        {
          "internalType": "address",
          "name": "from",
          "type": "address"
        }
      ],
      "name": "balanceOf",
      "outputs": [
        {
          "components": [
            {
              "internalType": "address",
              "name": "erc20",
              "type": "address"
            },
            {
              "internalType": "uint256",
              "name": "amount",
              "type": "uint256"
            }
          ],
          "internalType": "struct LegasiV0.Token[]",
          "name": "",
          "type": "tuple[]"
        }
      ],
      "stateMutability": "view",
      "type": "function"
    },
    {
      "inputs": [
        {
          "internalType": "address",
          "name": "notary",
          "type": "address"
        }
      ],
      "name": "isNotary",
      "outputs": [
        {
          "internalType": "bool",
          "name": "result",
          "type": "bool"
        }
      ],
      "stateMutability": "view",
      "type": "function"
    },
    {
      "inputs": [
        {
          "internalType": "address",
          "name": "from",
          "type": "address"
        },
        {
          "components": [
            {
              "internalType": "address",
              "name": "heir",
              "type": "address"
            },
            {
              "internalType": "uint256",
              "name": "amount",
              "type": "uint256"
            }
          ],
          "internalType": "struct LegasiV0.Transfer[]",
          "name": "to",
          "type": "tuple[]"
        }
      ],
      "name": "transferFunds",
      "outputs": [],
      "stateMutability": "nonpayable",
      "type": "function"
    }
  ],
  "bytecode": "0x608060405234801561001057600080fd5b5033600260006101000a81548173ffffffffffffffffffffffffffffffffffffffff021916908373ffffffffffffffffffffffffffffffffffffffff160217905550610b60806100616000396000f3fe608060405234801561001057600080fd5b50600436106100575760003560e01c80630588565f1461005c57806370a0823114610078578063871f7db1146100a8578063af81c5b9146100c4578063f13eed97146100e0575b600080fd5b6100766004803603810190610071919061079f565b610110565b005b610092600480360381019061008d919061079f565b6101c4565b60405161009f91906108d2565b60405180910390f35b6100c260048036038101906100bd9190610959565b61031d565b005b6100de60048036038101906100d991906109e5565b610598565b005b6100fa60048036038101906100f5919061079f565b610687565b6040516101079190610a40565b60405180910390f35b3373ffffffffffffffffffffffffffffffffffffffff16600260009054906101000a900473ffffffffffffffffffffffffffffffffffffffff1673ffffffffffffffffffffffffffffffffffffffff161461016a57600080fd5b60018060008373ffffffffffffffffffffffffffffffffffffffff1673ffffffffffffffffffffffffffffffffffffffff16815260200190815260200160002060006101000a81548160ff02191690831515021790555050565b6060600160003373ffffffffffffffffffffffffffffffffffffffff1673ffffffffffffffffffffffffffffffffffffffff16815260200190815260200160002060009054906101000a900460ff1661021c57600080fd5b60008060008473ffffffffffffffffffffffffffffffffffffffff1673ffffffffffffffffffffffffffffffffffffffff168152602001908152602001600020805480602002602001604051908101604052809291908181526020016000905b8282101561030e57838290600052602060002090600202016040518060400160405290816000820160009054906101000a900473ffffffffffffffffffffffffffffffffffffffff1673ffffffffffffffffffffffffffffffffffffffff1673ffffffffffffffffffffffffffffffffffffffff1681526020016001820154815250508152602001906001019061027c565b50505050905080915050919050565b600160003373ffffffffffffffffffffffffffffffffffffffff1673ffffffffffffffffffffffffffffffffffffffff16815260200190815260200160002060009054906101000a900460ff1661037357600080fd5b60008060008573ffffffffffffffffffffffffffffffffffffffff1673ffffffffffffffffffffffffffffffffffffffff168152602001908152602001600020805480602002602001604051908101604052809291908181526020016000905b8282101561046557838290600052602060002090600202016040518060400160405290816000820160009054906101000a900473ffffffffffffffffffffffffffffffffffffffff1673ffffffffffffffffffffffffffffffffffffffff1673ffffffffffffffffffffffffffffffffffffffff168152602001600182015481525050815260200190600101906103d3565b505050509050600081519050600084849050905060005b8281101561058f5760005b82811015610581578482815181106104a2576104a1610a5b565b5b60200260200101516000015173ffffffffffffffffffffffffffffffffffffffff1663a9059cbb8888858181106104dc576104db610a5b565b5b90506040020160000160208101906104f4919061079f565b87858151811061050757610506610a5b565b5b6020026020010151602001516040518363ffffffff1660e01b8152600401610530929190610aa8565b6020604051808303816000875af115801561054f573d6000803e3d6000fd5b505050506040513d601f19601f820116820180604052508101906105739190610afd565b508080600101915050610487565b50808060010191505061047c565b50505050505050565b60008060003373ffffffffffffffffffffffffffffffffffffffff1673ffffffffffffffffffffffffffffffffffffffff16815260200190815260200160002090508060405180604001604052808573ffffffffffffffffffffffffffffffffffffffff16815260200184815250908060018154018082558091505060019003906000526020600020906002020160009091909190915060008201518160000160006101000a81548173ffffffffffffffffffffffffffffffffffffffff021916908373ffffffffffffffffffffffffffffffffffffffff160217905550602082015181600101555050505050565b60003373ffffffffffffffffffffffffffffffffffffffff16600260009054906101000a900473ffffffffffffffffffffffffffffffffffffffff1673ffffffffffffffffffffffffffffffffffffffff16146106e357600080fd5b600160008373ffffffffffffffffffffffffffffffffffffffff1673ffffffffffffffffffffffffffffffffffffffff16815260200190815260200160002060009054906101000a900460ff169050919050565b600080fd5b600080fd5b600073ffffffffffffffffffffffffffffffffffffffff82169050919050565b600061076c82610741565b9050919050565b61077c81610761565b811461078757600080fd5b50565b60008135905061079981610773565b92915050565b6000602082840312156107b5576107b4610737565b5b60006107c38482850161078a565b91505092915050565b600081519050919050565b600082825260208201905092915050565b6000819050602082019050919050565b61080181610761565b82525050565b6000819050919050565b61081a81610807565b82525050565b60408201600082015161083660008501826107f8565b5060208201516108496020850182610811565b50505050565b600061085b8383610820565b60408301905092915050565b6000602082019050919050565b600061087f826107cc565b61088981856107d7565b9350610894836107e8565b8060005b838110156108c55781516108ac888261084f565b97506108b783610867565b925050600181019050610898565b5085935050505092915050565b600060208201905081810360008301526108ec8184610874565b905092915050565b600080fd5b600080fd5b600080fd5b60008083601f840112610919576109186108f4565b5b8235905067ffffffffffffffff811115610936576109356108f9565b5b602083019150836040820283011115610952576109516108fe565b5b9250929050565b60008060006040848603121561097257610971610737565b5b60006109808682870161078a565b935050602084013567ffffffffffffffff8111156109a1576109a061073c565b5b6109ad86828701610903565b92509250509250925092565b6109c281610807565b81146109cd57600080fd5b50565b6000813590506109df816109b9565b92915050565b600080604083850312156109fc576109fb610737565b5b6000610a0a8582860161078a565b9250506020610a1b858286016109d0565b9150509250929050565b60008115159050919050565b610a3a81610a25565b82525050565b6000602082019050610a556000830184610a31565b92915050565b7f4e487b7100000000000000000000000000000000000000000000000000000000600052603260045260246000fd5b610a9381610761565b82525050565b610aa281610807565b82525050565b6000604082019050610abd6000830185610a8a565b610aca6020830184610a99565b9392505050565b610ada81610a25565b8114610ae557600080fd5b50565b600081519050610af781610ad1565b92915050565b600060208284031215610b1357610b12610737565b5b6000610b2184828501610ae8565b9150509291505056fea26469706673582212209569cdd9f93c63a3c179f7c085e15631c589271a84441a74d264d8b9275c740164736f6c63430008180033",
  "linkReferences": {},
  "deployedLinkReferences": {}
}