{
  "_format": "hh-sol-artifact-1",
  "contractName": "EntryPoint",
  "sourceName": "contracts/EntryPoint.sol",
  "abi": [
    {
      "inputs": [],
      "stateMutability": "nonpayable",
      "type": "constructor"
    },
    {
      "inputs": [
        {
          "internalType": "address",
          "name": "notary",
          "type": "address"
        }
      ],
      "name": "addNotary",
      "outputs": [],
      "stateMutability": "nonpayable",
      "type": "function"
    },
    {
      "inputs": [
        {
          "internalType": "address",
          "name": "token",
          "type": "address"
        },
        {
          "internalType": "uint256",
          "name": "amount",
          "type": "uint256"
        }
      ],
      "name": "addToken",
      "outputs": [],
      "stateMutability": "nonpayable",
      "type": "function"
    },
    {
      "inputs": [
        {
          "internalType": "address",
          "name": "from",
          "type": "address"
        }
      ],
      "name": "balanceOf",
      "outputs": [
        {
          "components": [
            {
              "internalType": "address",
              "name": "erc20",
              "type": "address"
            },
            {
              "internalType": "uint256",
              "name": "amount",
              "type": "uint256"
            }
          ],
          "internalType": "struct EntryPoint.Token[]",
          "name": "",
          "type": "tuple[]"
        }
      ],
      "stateMutability": "view",
      "type": "function"
    },
    {
      "inputs": [
        {
          "internalType": "address",
          "name": "from",
          "type": "address"
        },
        {
          "components": [
            {
              "internalType": "address",
              "name": "heir",
              "type": "address"
            },
            {
              "internalType": "uint256",
              "name": "amount",
              "type": "uint256"
            }
          ],
          "internalType": "struct EntryPoint.Transfer[]",
          "name": "to",
          "type": "tuple[]"
        }
      ],
      "name": "transferFunds",
      "outputs": [],
      "stateMutability": "nonpayable",
      "type": "function"
    }
  ],
  "bytecode": "0x608060405234801561001057600080fd5b5033600260006101000a81548173ffffffffffffffffffffffffffffffffffffffff021916908373ffffffffffffffffffffffffffffffffffffffff160217905550610a4b806100616000396000f3fe608060405234801561001057600080fd5b506004361061004c5760003560e01c80630588565f1461005157806370a082311461006d578063871f7db11461009d578063af81c5b9146100b9575b600080fd5b61006b600480360381019061006691906106b4565b6100d5565b005b610087600480360381019061008291906106b4565b610189565b60405161009491906107e7565b60405180910390f35b6100b760048036038101906100b2919061086e565b6102e2565b005b6100d360048036038101906100ce91906108fa565b61055d565b005b3373ffffffffffffffffffffffffffffffffffffffff16600260009054906101000a900473ffffffffffffffffffffffffffffffffffffffff1673ffffffffffffffffffffffffffffffffffffffff161461012f57600080fd5b60018060008373ffffffffffffffffffffffffffffffffffffffff1673ffffffffffffffffffffffffffffffffffffffff16815260200190815260200160002060006101000a81548160ff02191690831515021790555050565b6060600160003373ffffffffffffffffffffffffffffffffffffffff1673ffffffffffffffffffffffffffffffffffffffff16815260200190815260200160002060009054906101000a900460ff166101e157600080fd5b60008060008473ffffffffffffffffffffffffffffffffffffffff1673ffffffffffffffffffffffffffffffffffffffff168152602001908152602001600020805480602002602001604051908101604052809291908181526020016000905b828210156102d357838290600052602060002090600202016040518060400160405290816000820160009054906101000a900473ffffffffffffffffffffffffffffffffffffffff1673ffffffffffffffffffffffffffffffffffffffff1673ffffffffffffffffffffffffffffffffffffffff16815260200160018201548152505081526020019060010190610241565b50505050905080915050919050565b600160003373ffffffffffffffffffffffffffffffffffffffff1673ffffffffffffffffffffffffffffffffffffffff16815260200190815260200160002060009054906101000a900460ff1661033857600080fd5b60008060008573ffffffffffffffffffffffffffffffffffffffff1673ffffffffffffffffffffffffffffffffffffffff168152602001908152602001600020805480602002602001604051908101604052809291908181526020016000905b8282101561042a57838290600052602060002090600202016040518060400160405290816000820160009054906101000a900473ffffffffffffffffffffffffffffffffffffffff1673ffffffffffffffffffffffffffffffffffffffff1673ffffffffffffffffffffffffffffffffffffffff16815260200160018201548152505081526020019060010190610398565b505050509050600081519050600084849050905060005b828110156105545760005b82811015610546578482815181106104675761046661093a565b5b60200260200101516000015173ffffffffffffffffffffffffffffffffffffffff1663a9059cbb8888858181106104a1576104a061093a565b5b90506040020160000160208101906104b991906106b4565b8785815181106104cc576104cb61093a565b5b6020026020010151602001516040518363ffffffff1660e01b81526004016104f5929190610987565b6020604051808303816000875af1158015610514573d6000803e3d6000fd5b505050506040513d601f19601f8201168201806040525081019061053891906109e8565b50808060010191505061044c565b508080600101915050610441565b50505050505050565b60008060003373ffffffffffffffffffffffffffffffffffffffff1673ffffffffffffffffffffffffffffffffffffffff16815260200190815260200160002090508060405180604001604052808573ffffffffffffffffffffffffffffffffffffffff16815260200184815250908060018154018082558091505060019003906000526020600020906002020160009091909190915060008201518160000160006101000a81548173ffffffffffffffffffffffffffffffffffffffff021916908373ffffffffffffffffffffffffffffffffffffffff160217905550602082015181600101555050505050565b600080fd5b600080fd5b600073ffffffffffffffffffffffffffffffffffffffff82169050919050565b600061068182610656565b9050919050565b61069181610676565b811461069c57600080fd5b50565b6000813590506106ae81610688565b92915050565b6000602082840312156106ca576106c961064c565b5b60006106d88482850161069f565b91505092915050565b600081519050919050565b600082825260208201905092915050565b6000819050602082019050919050565b61071681610676565b82525050565b6000819050919050565b61072f8161071c565b82525050565b60408201600082015161074b600085018261070d565b50602082015161075e6020850182610726565b50505050565b60006107708383610735565b60408301905092915050565b6000602082019050919050565b6000610794826106e1565b61079e81856106ec565b93506107a9836106fd565b8060005b838110156107da5781516107c18882610764565b97506107cc8361077c565b9250506001810190506107ad565b5085935050505092915050565b600060208201905081810360008301526108018184610789565b905092915050565b600080fd5b600080fd5b600080fd5b60008083601f84011261082e5761082d610809565b5b8235905067ffffffffffffffff81111561084b5761084a61080e565b5b60208301915083604082028301111561086757610866610813565b5b9250929050565b6000806000604084860312156108875761088661064c565b5b60006108958682870161069f565b935050602084013567ffffffffffffffff8111156108b6576108b5610651565b5b6108c286828701610818565b92509250509250925092565b6108d78161071c565b81146108e257600080fd5b50565b6000813590506108f4816108ce565b92915050565b600080604083850312156109115761091061064c565b5b600061091f8582860161069f565b9250506020610930858286016108e5565b9150509250929050565b7f4e487b7100000000000000000000000000000000000000000000000000000000600052603260045260246000fd5b61097281610676565b82525050565b6109818161071c565b82525050565b600060408201905061099c6000830185610969565b6109a96020830184610978565b9392505050565b60008115159050919050565b6109c5816109b0565b81146109d057600080fd5b50565b6000815190506109e2816109bc565b92915050565b6000602082840312156109fe576109fd61064c565b5b6000610a0c848285016109d3565b9150509291505056fea264697066735822122050057a9e0e69f1c444091ee6564f0761db02ff5f9d8d2edfe0de496f8c64007964736f6c63430008180033",
  "linkReferences": {},
  "deployedLinkReferences": {}
}